{
  "transactions": [
    {
      "hash": "0x1a4eff9cd954157a8e4c26ecc9b4277b3b83c4383c1cae0e1a369fa9ee299825",
      "transactionType": "CALL",
      "contractName": null,
      "contractAddress": "0x8c2acf6fb82305f19fbb3f60a53810b17df9bc9b",
      "function": "updateJobId(bytes32)",
      "arguments": [
        "0x3861356631633439653135393431313161313532643733633432623630356566"
      ],
      "transaction": {
        "from": "0x8b9469241e0bd69c3503d73d049b6135cc6013d0",
        "to": "0x8c2acf6fb82305f19fbb3f60a53810b17df9bc9b",
        "gas": "0x9c99",
        "value": "0x0",
        "input": "0x700153713861356631633439653135393431313161313532643733633432623630356566",
        "nonce": "0x15",
        "chainId": "0xaa36a7"
      },
      "additionalContracts": [],
      "isFixedGasLimit": false
    }
  ],
  "receipts": [
    {
      "status": "0x1",
      "cumulativeGasUsed": "0x8c7372",
      "logs": [],
      "logsBloom": "0x00000000000000000000000000000000000000000000000000000000000000000000000000000000000000000000000000000000000000000000000000000000000000000000000000000000000000000000000000000000000000000000000000000000000000000000000000000000000000000000000000000000000000000000000000000000000000000000000000000000000000000000000000000000000000000000000000000000000000000000000000000000000000000000000000000000000000000000000000000000000000000000000000000000000000000000000000000000000000000000000000000000000000000000000000000000",
      "type": "0x2",
      "transactionHash": "0x1a4eff9cd954157a8e4c26ecc9b4277b3b83c4383c1cae0e1a369fa9ee299825",
      "transactionIndex": "0x4e",
      "blockHash": "0x04c42b958fab121a934740fa3f32cb20fffac7570e31cafb181b9fa6127c34c8",
      "blockNumber": "0x722205",
      "gasUsed": "0x7160",
      "effectiveGasPrice": "0x289649e15",
      "from": "0x8b9469241e0bd69c3503d73d049b6135cc6013d0",
      "to": "0x8c2acf6fb82305f19fbb3f60a53810b17df9bc9b",
      "contractAddress": null
    }
  ],
  "libraries": [],
  "pending": [],
  "returns": {},
  "timestamp": 1736739061,
  "chain": 11155111,
  "commit": "488be2e"
}