{
  "transactions": [
    {
      "hash": "0x6a28e3742909e73cd3efa87b455ccc1a9689af7c7adfb023650a66f9ddcfbcdb",
      "transactionType": "CALL",
      "contractName": null,
      "contractAddress": "0x779877a7b0d9e8603169ddbd7836e478b4624789",
      "function": "approve(address,uint256)",
      "arguments": [
        "0x8c2acF6Fb82305f19fbB3F60a53810b17df9BC9B",
        "100000000000000000000"
      ],
      "transaction": {
        "from": "0x8b9469241e0bd69c3503d73d049b6135cc6013d0",
        "to": "0x779877a7b0d9e8603169ddbd7836e478b4624789",
        "gas": "0x8e13",
        "value": "0x0",
        "input": "0x095ea7b30000000000000000000000008c2acf6fb82305f19fbb3f60a53810b17df9bc9b0000000000000000000000000000000000000000000000056bc75e2d63100000",
        "nonce": "0xf",
        "chainId": "0xaa36a7"
      },
      "additionalContracts": [],
      "isFixedGasLimit": false
    },
    {
      "hash": "0x0d4b4b02b5c493616d73368418026d49c815eb8d693003d614ee1a10f28e09ad",
      "transactionType": "CALL",
      "contractName": null,
      "contractAddress": "0x779877a7b0d9e8603169ddbd7836e478b4624789",
      "function": "approve(address,uint256)",
      "arguments": [
        "0x086C7dfa9B27d03520d1812E4772f31400E8f0Ac",
        "100000000000000000000"
      ],
      "transaction": {
        "from": "0x8b9469241e0bd69c3503d73d049b6135cc6013d0",
        "to": "0x779877a7b0d9e8603169ddbd7836e478b4624789",
        "gas": "0x965e",
        "value": "0x0",
        "input": "0x095ea7b3000000000000000000000000086c7dfa9b27d03520d1812e4772f31400e8f0ac0000000000000000000000000000000000000000000000056bc75e2d63100000",
        "nonce": "0x10",
        "chainId": "0xaa36a7"
      },
      "additionalContracts": [],
      "isFixedGasLimit": false
    }
  ],
  "receipts": [
    {
      "status": "0x1",
      "cumulativeGasUsed": "0x1df2a86",
      "logs": [
        {
          "address": "0x779877a7b0d9e8603169ddbd7836e478b4624789",
          "topics": [
            "0x8c5be1e5ebec7d5bd14f71427d1e84f3dd0314c0f7b2291e5b200ac8c7c3b925",
            "0x0000000000000000000000008b9469241e0bd69c3503d73d049b6135cc6013d0",
            "0x0000000000000000000000008c2acf6fb82305f19fbb3f60a53810b17df9bc9b"
          ],
          "data": "0x0000000000000000000000000000000000000000000000056bc75e2d63100000",
          "blockHash": "0x8471c2997c6a9f49aff37e5d9bbf7622ea34feb6c59dae84f926435567b92353",
          "blockNumber": "0x7221bc",
          "transactionHash": "0x6a28e3742909e73cd3efa87b455ccc1a9689af7c7adfb023650a66f9ddcfbcdb",
          "transactionIndex": "0xc8",
          "logIndex": "0x144",
          "removed": false
        }
      ],
      "logsBloom": "0x00000404000000000080000000000000000000000000000000000000000000000000000000000000000000000000000000000000000000000000000000200000000000000000000000000000000000000000000000000000000000000000000000000000000000004000000000000000000000000000000000000000000000000000000000000000020000000000800000000000000400000000000000000000020000000000000000000000000000000000000000000000000000000800000000000000000000000000000000000000000000000000000100000000000000000010000000000000000000000000000000000000000000000000000000000000",
      "type": "0x2",
      "transactionHash": "0x6a28e3742909e73cd3efa87b455ccc1a9689af7c7adfb023650a66f9ddcfbcdb",
      "transactionIndex": "0xc8",
      "blockHash": "0x8471c2997c6a9f49aff37e5d9bbf7622ea34feb6c59dae84f926435567b92353",
      "blockNumber": "0x7221bc",
      "gasUsed": "0x66dd",
      "effectiveGasPrice": "0x1b93f43b4",
      "from": "0x8b9469241e0bd69c3503d73d049b6135cc6013d0",
      "to": "0x779877a7b0d9e8603169ddbd7836e478b4624789",
      "contractAddress": null
    },
    {
      "status": "0x1",
      "cumulativeGasUsed": "0x1df9157",
      "logs": [
        {
          "address": "0x779877a7b0d9e8603169ddbd7836e478b4624789",
          "topics": [
            "0x8c5be1e5ebec7d5bd14f71427d1e84f3dd0314c0f7b2291e5b200ac8c7c3b925",
            "0x0000000000000000000000008b9469241e0bd69c3503d73d049b6135cc6013d0",
            "0x000000000000000000000000086c7dfa9b27d03520d1812e4772f31400e8f0ac"
          ],
          "data": "0x0000000000000000000000000000000000000000000000056bc75e2d63100000",
          "blockHash": "0x8471c2997c6a9f49aff37e5d9bbf7622ea34feb6c59dae84f926435567b92353",
          "blockNumber": "0x7221bc",
          "transactionHash": "0x0d4b4b02b5c493616d73368418026d49c815eb8d693003d614ee1a10f28e09ad",
          "transactionIndex": "0xc9",
          "logIndex": "0x145",
          "removed": false
        }
      ],
      "logsBloom": "0x00000004000000000000000000000000000000000000000000000000000000000000000000008000000000000000000000000000000000000000000000200000000000000000000000000000000000000000000000000000000000000000000000000000000000004000000000000000000000000000000000000000000000000000000000000000000000000000800000000000000400000000000000000000020000000000000000000000000000000000000000000000000000000800000000000000000000000000000000000000000000000100000500000000000000000010000000000000000000000000000000000000000000000000000000000000",
      "type": "0x2",
      "transactionHash": "0x0d4b4b02b5c493616d73368418026d49c815eb8d693003d614ee1a10f28e09ad",
      "transactionIndex": "0xc9",
      "blockHash": "0x8471c2997c6a9f49aff37e5d9bbf7622ea34feb6c59dae84f926435567b92353",
      "blockNumber": "0x7221bc",
      "gasUsed": "0x66d1",
      "effectiveGasPrice": "0x1b93f43b4",
      "from": "0x8b9469241e0bd69c3503d73d049b6135cc6013d0",
      "to": "0x779877a7b0d9e8603169ddbd7836e478b4624789",
      "contractAddress": null
    }
  ],
  "libraries": [],
  "pending": [],
  "returns": {},
  "timestamp": 1736738186,
  "chain": 11155111,
  "commit": "488be2e"
}