{
  "transactions": [
    {
      "hash": "0x2ab6f27325e080878fc406639115177b53b364854f3fa4234aef3d056232afe9",
      "transactionType": "CALL",
      "contractName": null,
      "contractAddress": "0x779877a7b0d9e8603169ddbd7836e478b4624789",
      "function": "approve(address,uint256)",
      "arguments": [
        "0x8c2acF6Fb82305f19fbB3F60a53810b17df9BC9B",
        "100000000000000000000"
      ],
      "transaction": {
        "from": "0x8b9469241e0bd69c3503d73d049b6135cc6013d0",
        "to": "0x779877a7b0d9e8603169ddbd7836e478b4624789",
        "gas": "0x8e13",
        "value": "0x0",
        "input": "0x095ea7b30000000000000000000000008c2acf6fb82305f19fbb3f60a53810b17df9bc9b0000000000000000000000000000000000000000000000056bc75e2d63100000",
        "nonce": "0x6",
        "chainId": "0xaa36a7"
      },
      "additionalContracts": [],
      "isFixedGasLimit": false
    },
    {
      "hash": "0x700b91098333a9c6bd22f2baae02073410913a0d92d2aecfb1a1b0b08f0e5235",
      "transactionType": "CALL",
      "contractName": null,
      "contractAddress": "0x779877a7b0d9e8603169ddbd7836e478b4624789",
      "function": "approve(address,uint256)",
      "arguments": [
        "0x086C7dfa9B27d03520d1812E4772f31400E8f0Ac",
        "100000000000000000000"
      ],
      "transaction": {
        "from": "0x8b9469241e0bd69c3503d73d049b6135cc6013d0",
        "to": "0x779877a7b0d9e8603169ddbd7836e478b4624789",
        "gas": "0xf961",
        "value": "0x0",
        "input": "0x095ea7b3000000000000000000000000086c7dfa9b27d03520d1812e4772f31400e8f0ac0000000000000000000000000000000000000000000000056bc75e2d63100000",
        "nonce": "0x7",
        "chainId": "0xaa36a7"
      },
      "additionalContracts": [],
      "isFixedGasLimit": false
    }
  ],
  "receipts": [
    {
      "status": "0x1",
      "cumulativeGasUsed": "0x1d13867",
      "logs": [
        {
          "address": "0x779877a7b0d9e8603169ddbd7836e478b4624789",
          "topics": [
            "0x8c5be1e5ebec7d5bd14f71427d1e84f3dd0314c0f7b2291e5b200ac8c7c3b925",
            "0x0000000000000000000000008b9469241e0bd69c3503d73d049b6135cc6013d0",
            "0x0000000000000000000000008c2acf6fb82305f19fbb3f60a53810b17df9bc9b"
          ],
          "data": "0x0000000000000000000000000000000000000000000000056bc75e2d63100000",
          "blockHash": "0x555b4129c9e261ddebb794ac42f2123eef845c893c062c9c762312b4c547b176",
          "blockNumber": "0x721a96",
          "transactionHash": "0x2ab6f27325e080878fc406639115177b53b364854f3fa4234aef3d056232afe9",
          "transactionIndex": "0xc9",
          "logIndex": "0x16b",
          "removed": false
        }
      ],
      "logsBloom": "0x00000404000000000080000000000000000000000000000000000000000000000000000000000000000000000000000000000000000000000000000000200000000000000000000000000000000000000000000000000000000000000000000000000000000000004000000000000000000000000000000000000000000000000000000000000000020000000000800000000000000400000000000000000000020000000000000000000000000000000000000000000000000000000800000000000000000000000000000000000000000000000000000100000000000000000010000000000000000000000000000000000000000000000000000000000000",
      "type": "0x2",
      "transactionHash": "0x2ab6f27325e080878fc406639115177b53b364854f3fa4234aef3d056232afe9",
      "transactionIndex": "0xc9",
      "blockHash": "0x555b4129c9e261ddebb794ac42f2123eef845c893c062c9c762312b4c547b176",
      "blockNumber": "0x721a96",
      "gasUsed": "0x66dd",
      "effectiveGasPrice": "0x8ce8b5",
      "from": "0x8b9469241e0bd69c3503d73d049b6135cc6013d0",
      "to": "0x779877a7b0d9e8603169ddbd7836e478b4624789",
      "contractAddress": null
    },
    {
      "status": "0x1",
      "cumulativeGasUsed": "0x1d1ecf4",
      "logs": [
        {
          "address": "0x779877a7b0d9e8603169ddbd7836e478b4624789",
          "topics": [
            "0x8c5be1e5ebec7d5bd14f71427d1e84f3dd0314c0f7b2291e5b200ac8c7c3b925",
            "0x0000000000000000000000008b9469241e0bd69c3503d73d049b6135cc6013d0",
            "0x000000000000000000000000086c7dfa9b27d03520d1812e4772f31400e8f0ac"
          ],
          "data": "0x0000000000000000000000000000000000000000000000056bc75e2d63100000",
          "blockHash": "0x555b4129c9e261ddebb794ac42f2123eef845c893c062c9c762312b4c547b176",
          "blockNumber": "0x721a96",
          "transactionHash": "0x700b91098333a9c6bd22f2baae02073410913a0d92d2aecfb1a1b0b08f0e5235",
          "transactionIndex": "0xca",
          "logIndex": "0x16c",
          "removed": false
        }
      ],
      "logsBloom": "0x00000004000000000000000000000000000000000000000000000000000000000000000000008000000000000000000000000000000000000000000000200000000000000000000000000000000000000000000000000000000000000000000000000000000000004000000000000000000000000000000000000000000000000000000000000000000000000000800000000000000400000000000000000000020000000000000000000000000000000000000000000000000000000800000000000000000000000000000000000000000000000100000500000000000000000010000000000000000000000000000000000000000000000000000000000000",
      "type": "0x2",
      "transactionHash": "0x700b91098333a9c6bd22f2baae02073410913a0d92d2aecfb1a1b0b08f0e5235",
      "transactionIndex": "0xca",
      "blockHash": "0x555b4129c9e261ddebb794ac42f2123eef845c893c062c9c762312b4c547b176",
      "blockNumber": "0x721a96",
      "gasUsed": "0xb48d",
      "effectiveGasPrice": "0x8ce8b5",
      "from": "0x8b9469241e0bd69c3503d73d049b6135cc6013d0",
      "to": "0x779877a7b0d9e8603169ddbd7836e478b4624789",
      "contractAddress": null
    }
  ],
  "libraries": [],
  "pending": [],
  "returns": {},
  "timestamp": 1736716166,
  "chain": 11155111,
  "commit": "488be2e"
}