{
  "transactions": [
    {
      "hash": "0xe1d6a83c3359a8156696fad66714dda83a909e8738a13be9f77e17b59bd180f0",
      "transactionType": "CALL",
      "contractName": null,
      "contractAddress": "0x779877a7b0d9e8603169ddbd7836e478b4624789",
      "function": "approve(address,uint256)",
      "arguments": [
        "0x8c2acF6Fb82305f19fbB3F60a53810b17df9BC9B",
        "100000000000000000000"
      ],
      "transaction": {
        "from": "0x8b9469241e0bd69c3503d73d049b6135cc6013d0",
        "to": "0x779877a7b0d9e8603169ddbd7836e478b4624789",
        "gas": "0x1081f",
        "value": "0x0",
        "input": "0x095ea7b30000000000000000000000008c2acf6fb82305f19fbb3f60a53810b17df9bc9b0000000000000000000000000000000000000000000000056bc75e2d63100000",
        "nonce": "0x5",
        "chainId": "0xaa36a7"
      },
      "additionalContracts": [],
      "isFixedGasLimit": false
    }
  ],
  "receipts": [
    {
      "status": "0x1",
      "cumulativeGasUsed": "0xb1bde3",
      "logs": [
        {
          "address": "0x779877a7b0d9e8603169ddbd7836e478b4624789",
          "topics": [
            "0x8c5be1e5ebec7d5bd14f71427d1e84f3dd0314c0f7b2291e5b200ac8c7c3b925",
            "0x0000000000000000000000008b9469241e0bd69c3503d73d049b6135cc6013d0",
            "0x0000000000000000000000008c2acf6fb82305f19fbb3f60a53810b17df9bc9b"
          ],
          "data": "0x0000000000000000000000000000000000000000000000056bc75e2d63100000",
          "blockHash": "0x7c0c3dfd17dd0cc463a8a18291ddd190a3f324d08d0db96069e60e483d6baace",
          "blockNumber": "0x721728",
          "transactionHash": "0xe1d6a83c3359a8156696fad66714dda83a909e8738a13be9f77e17b59bd180f0",
          "transactionIndex": "0x4c",
          "logIndex": "0x61",
          "removed": false
        }
      ],
      "logsBloom": "0x00000404000000000080000000000000000000000000000000000000000000000000000000000000000000000000000000000000000000000000000000200000000000000000000000000000000000000000000000000000000000000000000000000000000000004000000000000000000000000000000000000000000000000000000000000000020000000000800000000000000400000000000000000000020000000000000000000000000000000000000000000000000000000800000000000000000000000000000000000000000000000000000100000000000000000010000000000000000000000000000000000000000000000000000000000000",
      "type": "0x2",
      "transactionHash": "0xe1d6a83c3359a8156696fad66714dda83a909e8738a13be9f77e17b59bd180f0",
      "transactionIndex": "0x4c",
      "blockHash": "0x7c0c3dfd17dd0cc463a8a18291ddd190a3f324d08d0db96069e60e483d6baace",
      "blockNumber": "0x721728",
      "gasUsed": "0xb499",
      "effectiveGasPrice": "0x5840a6cf",
      "from": "0x8b9469241e0bd69c3503d73d049b6135cc6013d0",
      "to": "0x779877a7b0d9e8603169ddbd7836e478b4624789",
      "contractAddress": null
    }
  ],
  "libraries": [],
  "pending": [],
  "returns": {},
  "timestamp": 1736705616,
  "chain": 11155111,
  "commit": "488be2e"
}