{
  "transactions": [
    {
      "hash": "0xe9beda82ec66d44daed0c3ebf7a457a02a72c2f2c2179d9824d013904565a87a",
      "transactionType": "CALL",
      "contractName": null,
      "contractAddress": "0x779877a7b0d9e8603169ddbd7836e478b4624789",
      "function": "approve(address,uint256)",
      "arguments": [
        "0x086C7dfa9B27d03520d1812E4772f31400E8f0Ac",
        "100000000000000000000"
      ],
      "transaction": {
        "from": "0x8b9469241e0bd69c3503d73d049b6135cc6013d0",
        "to": "0x779877a7b0d9e8603169ddbd7836e478b4624789",
        "gas": "0x965e",
        "value": "0x0",
        "input": "0x095ea7b3000000000000000000000000086c7dfa9b27d03520d1812e4772f31400e8f0ac0000000000000000000000000000000000000000000000056bc75e2d63100000",
        "nonce": "0x13",
        "chainId": "0xaa36a7"
      },
      "additionalContracts": [],
      "isFixedGasLimit": false
    },
    {
      "hash": "0x8290c39fd2e56994cd63766abb665a607e4b939e1a5a658a15685f1c75aca358",
      "transactionType": "CALL",
      "contractName": null,
      "contractAddress": "0x779877a7b0d9e8603169ddbd7836e478b4624789",
      "function": "approve(address,uint256)",
      "arguments": [
        "0x086C7dfa9B27d03520d1812E4772f31400E8f0Ac",
        "100000000000000000000"
      ],
      "transaction": {
        "from": "0x8b9469241e0bd69c3503d73d049b6135cc6013d0",
        "to": "0x779877a7b0d9e8603169ddbd7836e478b4624789",
        "gas": "0x965e",
        "value": "0x0",
        "input": "0x095ea7b3000000000000000000000000086c7dfa9b27d03520d1812e4772f31400e8f0ac0000000000000000000000000000000000000000000000056bc75e2d63100000",
        "nonce": "0x14",
        "chainId": "0xaa36a7"
      },
      "additionalContracts": [],
      "isFixedGasLimit": false
    }
  ],
  "receipts": [
    {
      "status": "0x1",
      "cumulativeGasUsed": "0xa0b5e5",
      "logs": [
        {
          "address": "0x779877a7b0d9e8603169ddbd7836e478b4624789",
          "topics": [
            "0x8c5be1e5ebec7d5bd14f71427d1e84f3dd0314c0f7b2291e5b200ac8c7c3b925",
            "0x0000000000000000000000008b9469241e0bd69c3503d73d049b6135cc6013d0",
            "0x000000000000000000000000086c7dfa9b27d03520d1812e4772f31400e8f0ac"
          ],
          "data": "0x0000000000000000000000000000000000000000000000056bc75e2d63100000",
          "blockHash": "0xa6b7bb3ff56024720da7ac2932286c729f6d1d7cd3ba73d73c1866dd0f89ca8c",
          "blockNumber": "0x7221f7",
          "transactionHash": "0xe9beda82ec66d44daed0c3ebf7a457a02a72c2f2c2179d9824d013904565a87a",
          "transactionIndex": "0x54",
          "logIndex": "0x87",
          "removed": false
        }
      ],
      "logsBloom": "0x00000004000000000000000000000000000000000000000000000000000000000000000000008000000000000000000000000000000000000000000000200000000000000000000000000000000000000000000000000000000000000000000000000000000000004000000000000000000000000000000000000000000000000000000000000000000000000000800000000000000400000000000000000000020000000000000000000000000000000000000000000000000000000800000000000000000000000000000000000000000000000100000500000000000000000010000000000000000000000000000000000000000000000000000000000000",
      "type": "0x2",
      "transactionHash": "0xe9beda82ec66d44daed0c3ebf7a457a02a72c2f2c2179d9824d013904565a87a",
      "transactionIndex": "0x54",
      "blockHash": "0xa6b7bb3ff56024720da7ac2932286c729f6d1d7cd3ba73d73c1866dd0f89ca8c",
      "blockNumber": "0x7221f7",
      "gasUsed": "0x66d1",
      "effectiveGasPrice": "0x280cec898",
      "from": "0x8b9469241e0bd69c3503d73d049b6135cc6013d0",
      "to": "0x779877a7b0d9e8603169ddbd7836e478b4624789",
      "contractAddress": null
    },
    {
      "status": "0x1",
      "cumulativeGasUsed": "0x115b39b",
      "logs": [
        {
          "address": "0x779877a7b0d9e8603169ddbd7836e478b4624789",
          "topics": [
            "0x8c5be1e5ebec7d5bd14f71427d1e84f3dd0314c0f7b2291e5b200ac8c7c3b925",
            "0x0000000000000000000000008b9469241e0bd69c3503d73d049b6135cc6013d0",
            "0x000000000000000000000000086c7dfa9b27d03520d1812e4772f31400e8f0ac"
          ],
          "data": "0x0000000000000000000000000000000000000000000000056bc75e2d63100000",
          "blockHash": "0x5608aaf2e53933d4534a32da97f66fa62811d0fafb2b9e66c36ab8ab2f383450",
          "blockNumber": "0x7221f8",
          "transactionHash": "0x8290c39fd2e56994cd63766abb665a607e4b939e1a5a658a15685f1c75aca358",
          "transactionIndex": "0x70",
          "logIndex": "0xe8",
          "removed": false
        }
      ],
      "logsBloom": "0x00000004000000000000000000000000000000000000000000000000000000000000000000008000000000000000000000000000000000000000000000200000000000000000000000000000000000000000000000000000000000000000000000000000000000004000000000000000000000000000000000000000000000000000000000000000000000000000800000000000000400000000000000000000020000000000000000000000000000000000000000000000000000000800000000000000000000000000000000000000000000000100000500000000000000000010000000000000000000000000000000000000000000000000000000000000",
      "type": "0x2",
      "transactionHash": "0x8290c39fd2e56994cd63766abb665a607e4b939e1a5a658a15685f1c75aca358",
      "transactionIndex": "0x70",
      "blockHash": "0x5608aaf2e53933d4534a32da97f66fa62811d0fafb2b9e66c36ab8ab2f383450",
      "blockNumber": "0x7221f8",
      "gasUsed": "0x66d1",
      "effectiveGasPrice": "0x26a7feb0e",
      "from": "0x8b9469241e0bd69c3503d73d049b6135cc6013d0",
      "to": "0x779877a7b0d9e8603169ddbd7836e478b4624789",
      "contractAddress": null
    }
  ],
  "libraries": [],
  "pending": [],
  "returns": {},
  "timestamp": 1736738905,
  "chain": 11155111,
  "commit": "488be2e"
}