{
  "transactions": [
    {
      "hash": "0xd8b21051a25329dec504432b7a8a80962a6cd00b492cfb8f120faabfcc302455",
      "transactionType": "CALL",
      "contractName": null,
      "contractAddress": "0x779877a7b0d9e8603169ddbd7836e478b4624789",
      "function": "transfer(address,uint256)",
      "arguments": [
        "0x8c2acF6Fb82305f19fbB3F60a53810b17df9BC9B",
        "1000000000000000000"
      ],
      "transaction": {
        "from": "0x8b9469241e0bd69c3503d73d049b6135cc6013d0",
        "to": "0x779877a7b0d9e8603169ddbd7836e478b4624789",
        "gas": "0xba74",
        "value": "0x0",
        "input": "0xa9059cbb0000000000000000000000008c2acf6fb82305f19fbb3f60a53810b17df9bc9b0000000000000000000000000000000000000000000000000de0b6b3a7640000",
        "nonce": "0xe",
        "chainId": "0xaa36a7"
      },
      "additionalContracts": [],
      "isFixedGasLimit": false
    }
  ],
  "receipts": [
    {
      "status": "0x1",
      "cumulativeGasUsed": "0x114eb9f",
      "logs": [
        {
          "address": "0x779877a7b0d9e8603169ddbd7836e478b4624789",
          "topics": [
            "0xddf252ad1be2c89b69c2b068fc378daa952ba7f163c4a11628f55a4df523b3ef",
            "0x0000000000000000000000008b9469241e0bd69c3503d73d049b6135cc6013d0",
            "0x0000000000000000000000008c2acf6fb82305f19fbb3f60a53810b17df9bc9b"
          ],
          "data": "0x0000000000000000000000000000000000000000000000000de0b6b3a7640000",
          "blockHash": "0x90a26eecb15a1b285efdd5b39834ff32aa265372116b42a335c04c147b4fc3a9",
          "blockNumber": "0x7221b4",
          "transactionHash": "0xd8b21051a25329dec504432b7a8a80962a6cd00b492cfb8f120faabfcc302455",
          "transactionIndex": "0x62",
          "logIndex": "0xb5",
          "removed": false
        }
      ],
      "logsBloom": "0x00000404000000000080000000000000000000000000000000000000000000000000000000000000000000000000000000000000000000000000000000000000000000000000000000000008000000000000000000000000000000000000000000000000000000004000000000000000000000000000000000000010000000000000000000000000020000000000800000000000000400000000000000000000000000000000000000000000000000000000000000000000000000000800000000000002000000000000000000000000000000000000000100000000000000000000000000000000000000000000000000000000000000000000000000000000",
      "type": "0x2",
      "transactionHash": "0xd8b21051a25329dec504432b7a8a80962a6cd00b492cfb8f120faabfcc302455",
      "transactionIndex": "0x62",
      "blockHash": "0x90a26eecb15a1b285efdd5b39834ff32aa265372116b42a335c04c147b4fc3a9",
      "blockNumber": "0x7221b4",
      "gasUsed": "0x86fe",
      "effectiveGasPrice": "0xea01837e",
      "from": "0x8b9469241e0bd69c3503d73d049b6135cc6013d0",
      "to": "0x779877a7b0d9e8603169ddbd7836e478b4624789",
      "contractAddress": null
    }
  ],
  "libraries": [],
  "pending": [],
  "returns": {},
  "timestamp": 1736738089,
  "chain": 11155111,
  "commit": "488be2e"
}