{
  "transactions": [
    {
      "hash": "0x84891c46e8a4659ec44755d4a7cf19b03f218636475a9355e14333fe68a93a7c",
      "transactionType": "CALL",
      "contractName": null,
      "contractAddress": "0x779877a7b0d9e8603169ddbd7836e478b4624789",
      "function": "transfer(address,uint256)",
      "arguments": [
        "0x086C7dfa9B27d03520d1812E4772f31400E8f0Ac",
        "1000000000000000000"
      ],
      "transaction": {
        "from": "0x8b9469241e0bd69c3503d73d049b6135cc6013d0",
        "to": "0x779877a7b0d9e8603169ddbd7836e478b4624789",
        "gas": "0xc55b",
        "value": "0x0",
        "input": "0xa9059cbb000000000000000000000000086c7dfa9b27d03520d1812e4772f31400e8f0ac0000000000000000000000000000000000000000000000000de0b6b3a7640000",
        "nonce": "0x12",
        "chainId": "0xaa36a7"
      },
      "additionalContracts": [],
      "isFixedGasLimit": false
    }
  ],
  "receipts": [
    {
      "status": "0x1",
      "cumulativeGasUsed": "0x6fc331",
      "logs": [
        {
          "address": "0x779877a7b0d9e8603169ddbd7836e478b4624789",
          "topics": [
            "0xddf252ad1be2c89b69c2b068fc378daa952ba7f163c4a11628f55a4df523b3ef",
            "0x0000000000000000000000008b9469241e0bd69c3503d73d049b6135cc6013d0",
            "0x000000000000000000000000086c7dfa9b27d03520d1812e4772f31400e8f0ac"
          ],
          "data": "0x0000000000000000000000000000000000000000000000000de0b6b3a7640000",
          "blockHash": "0x0b14903cf7c20b7455e3817bc192df17d88facf5db063a5137f6ddfef0d2d492",
          "blockNumber": "0x7221f3",
          "transactionHash": "0x84891c46e8a4659ec44755d4a7cf19b03f218636475a9355e14333fe68a93a7c",
          "transactionIndex": "0x3f",
          "logIndex": "0x5c",
          "removed": false
        }
      ],
      "logsBloom": "0x00000004000000000000000000000000000000000000000000000000000000000000000000008000000000000000000000000000000000000000000000000000000000000000000000000008000000000000000000000000000000000000000000000000000000004000000000000000000000000000000000000010000000000000000000000000000000000000800000000000000400000000000000000000000000000000000000000000000000000000000000000000000000000800000000000002000000000000000000000000000000000100000500000000000000000000000000000000000000000000000000000000000000000000000000000000",
      "type": "0x2",
      "transactionHash": "0x84891c46e8a4659ec44755d4a7cf19b03f218636475a9355e14333fe68a93a7c",
      "transactionIndex": "0x3f",
      "blockHash": "0x0b14903cf7c20b7455e3817bc192df17d88facf5db063a5137f6ddfef0d2d492",
      "blockNumber": "0x7221f3",
      "gasUsed": "0x86f2",
      "effectiveGasPrice": "0x2be4db200",
      "from": "0x8b9469241e0bd69c3503d73d049b6135cc6013d0",
      "to": "0x779877a7b0d9e8603169ddbd7836e478b4624789",
      "contractAddress": null
    }
  ],
  "libraries": [],
  "pending": [],
  "returns": {},
  "timestamp": 1736738845,
  "chain": 11155111,
  "commit": "488be2e"
}