{
  "transactions": [
    {
      "hash": "0x8286073a92a4756d1da458e9e16240c624f17f183591addde31133ccb4c137b9",
      "transactionType": "CALL",
      "contractName": null,
      "contractAddress": "0x779877a7b0d9e8603169ddbd7836e478b4624789",
      "function": "transfer(address,uint256)",
      "arguments": [
        "0x8c2acF6Fb82305f19fbB3F60a53810b17df9BC9B",
        "1000000000000000000"
      ],
      "transaction": {
        "from": "0x8b9469241e0bd69c3503d73d049b6135cc6013d0",
        "to": "0x779877a7b0d9e8603169ddbd7836e478b4624789",
        "gas": "0x1271d",
        "value": "0x0",
        "input": "0xa9059cbb0000000000000000000000008c2acf6fb82305f19fbb3f60a53810b17df9bc9b0000000000000000000000000000000000000000000000000de0b6b3a7640000",
        "nonce": "0x8",
        "chainId": "0xaa36a7"
      },
      "additionalContracts": [],
      "isFixedGasLimit": false
    }
  ],
  "receipts": [
    {
      "status": "0x1",
      "cumulativeGasUsed": "0x1f7db8e",
      "logs": [
        {
          "address": "0x779877a7b0d9e8603169ddbd7836e478b4624789",
          "topics": [
            "0xddf252ad1be2c89b69c2b068fc378daa952ba7f163c4a11628f55a4df523b3ef",
            "0x0000000000000000000000008b9469241e0bd69c3503d73d049b6135cc6013d0",
            "0x0000000000000000000000008c2acf6fb82305f19fbb3f60a53810b17df9bc9b"
          ],
          "data": "0x0000000000000000000000000000000000000000000000000de0b6b3a7640000",
          "blockHash": "0x548345dd321156270a05634ab704c69afa6d21b5441b2d7af79deaa1181822b2",
          "blockNumber": "0x721aaa",
          "transactionHash": "0x8286073a92a4756d1da458e9e16240c624f17f183591addde31133ccb4c137b9",
          "transactionIndex": "0x6a",
          "logIndex": "0x25c",
          "removed": false
        }
      ],
      "logsBloom": "0x00000404000000000080000000000000000000000000000000000000000000000000000000000000000000000000000000000000000000000000000000000000000000000000000000000008000000000000000000000000000000000000000000000000000000004000000000000000000000000000000000000010000000000000000000000000020000000000800000000000000400000000000000000000000000000000000000000000000000000000000000000000000000000800000000000002000000000000000000000000000000000000000100000000000000000000000000000000000000000000000000000000000000000000000000000000",
      "type": "0x2",
      "transactionHash": "0x8286073a92a4756d1da458e9e16240c624f17f183591addde31133ccb4c137b9",
      "transactionIndex": "0x6a",
      "blockHash": "0x548345dd321156270a05634ab704c69afa6d21b5441b2d7af79deaa1181822b2",
      "blockNumber": "0x721aaa",
      "gasUsed": "0xc9ca",
      "effectiveGasPrice": "0x963684",
      "from": "0x8b9469241e0bd69c3503d73d049b6135cc6013d0",
      "to": "0x779877a7b0d9e8603169ddbd7836e478b4624789",
      "contractAddress": null
    }
  ],
  "libraries": [],
  "pending": [],
  "returns": {},
  "timestamp": 1736716405,
  "chain": 11155111,
  "commit": "488be2e"
}