{
  "transactions": [
    {
      "hash": "0x2cdc87977360b34db110cb6a32ac38cc571b246b65c4e129257c3c90cca5e5a4",
      "transactionType": "CALL",
      "contractName": null,
      "contractAddress": "0x086c7dfa9b27d03520d1812e4772f31400e8f0ac",
      "function": "setFulfillmentPermission(address,bool)",
      "arguments": [
        "0xe6C88a7C2d10d5E9572d359dC5c4cB4959057Bb9",
        "true"
      ],
      "transaction": {
        "from": "0x8b9469241e0bd69c3503d73d049b6135cc6013d0",
        "to": "0x086c7dfa9b27d03520d1812e4772f31400e8f0ac",
        "gas": "0xfa5a",
        "value": "0x0",
        "input": "0x7fcd56db000000000000000000000000e6c88a7c2d10d5e9572d359dc5c4cb4959057bb90000000000000000000000000000000000000000000000000000000000000001",
        "nonce": "0xa",
        "chainId": "0xaa36a7"
      },
      "additionalContracts": [],
      "isFixedGasLimit": false
    }
  ],
  "receipts": [
    {
      "status": "0x1",
      "cumulativeGasUsed": "0x82cedf",
      "logs": [],
      "logsBloom": "0x00000000000000000000000000000000000000000000000000000000000000000000000000000000000000000000000000000000000000000000000000000000000000000000000000000000000000000000000000000000000000000000000000000000000000000000000000000000000000000000000000000000000000000000000000000000000000000000000000000000000000000000000000000000000000000000000000000000000000000000000000000000000000000000000000000000000000000000000000000000000000000000000000000000000000000000000000000000000000000000000000000000000000000000000000000000",
      "type": "0x2",
      "transactionHash": "0x2cdc87977360b34db110cb6a32ac38cc571b246b65c4e129257c3c90cca5e5a4",
      "transactionIndex": "0x49",
      "blockHash": "0x8126d25b2c056f8c35045d79cd4dfb4d50de46e962c0e0cf3066614f651d4713",
      "blockNumber": "0x721cb8",
      "gasUsed": "0xb540",
      "effectiveGasPrice": "0x43f01fb7",
      "from": "0x8b9469241e0bd69c3503d73d049b6135cc6013d0",
      "to": "0x086c7dfa9b27d03520d1812e4772f31400e8f0ac",
      "contractAddress": null
    }
  ],
  "libraries": [],
  "pending": [],
  "returns": {},
  "timestamp": 1736722741,
  "chain": 11155111,
  "commit": "488be2e"
}